:020000040800F2
:100000000000052091B0000821AE000823AE0008D2
:1000100025AE000827AE000829AE00080000000049
:10002000000000000000000000000000512900084E
:100030002BAE000800000000F12900082DAE0008DA
:10004000E1B00008E1B00008E1B00008E1B000084C
:10005000E1B00008E1B00008E1B00008E1B000083C
:10006000E1B00008E1B00008E1B00008E1B000082C
:10007000E1B00008E1B00008E1B00008E1B000081C
:10008000E1B00008E1B00008E1B00008E1B000080C
:10009000E1B00008E1B00008E1B00008E1B00008FC
:1000A000E1B0000831AE0008E1B00008E1B000089E
:1000B000E1B00008E1B00008E1B00008E1B00008DC
:1000C000E1B00008E1B00008E1B00008E1B00008CC
:1000D000E1B00008E1B00008E1B00008E1B00008BC
:1000E000E1B00008E1B00008E1B00008E1B00008AC
:1000F000E1B00008E1B00008E1B00008E1B000089C
:10010000E1B00008E1B00008E1B00008E1B000088B
:10011000E1B00008E1B00008E1B00008E1B000087B
:10012000E1B00008E1B00008E1B00008E1B000086B
:10013000E1B000083DAE0008E1B00008E1B0000801
:10014000E1B00008E1B00008E1B00008E1B000084B
:10015000E1B00008E1B00008E1B00008E1B000083B
:10016000E1B00008E1B00008E1B00008E1B000082B
:10017000E1B00008E1B00008E1B0000800000000B4
:10018000E1B00008E1B00008E1B00008E1B000080B
:10019000E1B00008E1B00008E1B00008E1B00008FB
:1001A000E1B00008E1B00008E1B00008E1B00008EB
:1001B000E1B00008E1B00008E1B00008E1B00008DB
:0801C000E1B00008E1B0000805
:1001D00010B5054C237833B9044B13B10448AFF381
:1001E00000800123237010BD7C000020000000006F
:1001F000E4BF000808B5034B1BB103490348AFF344
:10020000008008BD0000000080000020E4BF00085E
:1002100001F0FF01102A2BDB10F0070F08D010F8B7
:10022000013B013A8B422DD010F0070F42B3F6D1BB
:10023000F0B441EA012141EA014122F007047FF0D4
:1002400000070023F0E80256083C85EA010586EA2B
:10025000010685FA47F5A3FA87F586FA47F6A5FA67
:1002600087F68EB9EED1F0BC01F0FF0102F0070273
:1002700032B110F8013B013A83EA010313B1F8D11E
:100280000020704701387047002D06BF35460338FF
:10029000073815F0010F07D1013015F4807F02BF38
:1002A000013015F4C03F0130F0BC0138704700BF89
:1002B00053B94AB9002908BF00281CBF4FF0FF31CD
:1002C0004FF0FF3000F07AB9ADF1080C6DE904CEC3
:1002D00000F006F8DDF804E0DDE9022304B0704721
:1002E0002DE9F0478C460D460446089E002B51D15F
:1002F0008A4217466DD9B2FA82FEBEF1000F0BD0CA
:10030000CEF1200C01FA0EF520FA0CFC02FA0EF7E1
:100310004CEA050C00FA0EF44FEA174A250CBCFB18
:10032000FAF81FFA87F90AFB18CC45EA0C4508FBD6
:1003300009F3AB420AD9ED1908F1FF3280F02381AD
:10034000AB4240F22081A8F102083D44ED1AA4B26C
:10035000B5FBFAF00AFB105544EA054400FB09F925
:10036000A14509D9E41900F1FF3380F00A81A145C4
:1003700040F2078102383C44A4EB090440EA0840FB
:100380000021002E61D024FA0EF400233460736043
:10039000BDE8F0878B4207D9002E54D0002186E8B3
:1003A00021000846BDE8F087B3FA83F1002940F048
:1003B0008E80AB4202D3824200F2FA80841A65EB4F
:1003C00003050120AC46002E3FD086E81010BDE8A2
:1003D000F08712B90127B7FBF2F7B7FA87FEBEF133
:1003E000000F34D1EB1B3A0C1FFA87FC0121B3FB41
:1003F000F2F8250C02FB183345EA03450CFB08F321
:10040000AB4207D9ED1908F1FF3002D2AB4200F23E
:10041000D1808046ED1AA3B2B5FBF2F002FB105575
:1004200043EA05440CFB00FCA44507D9E41900F19C
:10043000FF3302D2A44500F2B8801846A4EB0C04A6
:1004400040EA08409DE731463046BDE8F087CEF1EE
:10045000200405FA0EF307FA0EF720FA04F83A0C16
:1004600025FA04F448EA0308B4FBF2F14FEA184510
:1004700002FB11441FFA87FC45EA044501FB0CF31B
:10048000AB4200FA0EF409D9ED1901F1FF3080F00A
:100490008A80AB4240F2878002393D44EB1A1FFA52
:1004A00088F5B3FBF2F002FB103345EA034500FB8D
:1004B0000CF3AB4207D9ED1900F1FF386FD2AB4214
:1004C0006DD902383D44EB1A40EA01418FE7C1F192
:1004D000200722FA07F88B4005FA01F448EA0303E3
:1004E00020FA07FE4FEA134CFD404EEA040EB5FB1E
:1004F000FCF94FEA1E440CFB19551FFA83F844EA35
:10050000054509FB08F4AC4202FA01F200FA01FACF
:1005100008D9ED1809F1FF3043D2AC4241D9A9F115
:1005200002091D442D1B1FFA8EFEB5FBFCF00CFBCF
:1005300010554EEA054400FB08F8A04507D9E41819
:1005400000F1FF3529D2A04527D902381C4440EAE2
:100550000940A4EB0804A0FB02894C45C6464D4661
:1005600015D312D056B1BAEB0E0364EB050404FAAE
:1005700007F7CB401F43CC40376074600021BDE8D3
:10058000F0871846F8E69046E0E6C245EAD2B8EBB6
:10059000020E69EB03050138E4E72846D7E7404639
:1005A00091E78146BEE7014678E702383C4445E7DB
:1005B000084608E7A8F102083D442BE7704700BF52
:1005C00008B5032000F02CF800200AF0EDFB0AF03B
:1005D00015FB002008BD0000034A044B11681B787E
:1005E0000B441360704700BF983F002000000020BC
:1005F000014B1868704700BF983F002038B504468B
:10060000FFF7F6FF0546631C1EBF044B1B78E4187A
:10061000FFF7EEFF401B8442FAD838BD00000020EF
:10062000074A0002D36800F4E06023F4E0631B048F
:100630001B0C43F0BF6343F400330343D3607047A4
:1006400000ED00E0194B30B5DC68C4F30224C4F1BE
:100650000703251D042B28BF0423062D4FF0010599
:100660008CBF033C002405FA03F3002803F1FF3399
:1006700001EA030101FA04F105FA04F404F1FF347C
:1006800002EA040242EA01024FEA021205DA00F02D
:100690000F00D2B2064B1A5430BD00F16040D2B206
:1006A00000F5614080F8002330BD00BF00ED00E0A0
:1006B00014ED00E04209012300F01F0003FA00F0EE
:1006C000014B43F82200704700E100E00138B0F12F
:1006D000807F0AD2064BF021064A5860002082F83B
:1006E0002310072298601A6070470120704700BFEE
:1006F00010E000E000ED00E0044B04281A680CBF95
:1007000042F0040222F004021A60704710E000E098
:10071000002337B541F21804019303680546012010
:100720001A5942F480121A511B590193FFF766FFC0
:100730002B68019A1A5103B030BD000070B5044611
:1007400029B14FF40063C3604FF480438360E369D1
:100750002268002BE068A368156808BF4FF4806129
:1007600043EA00032E4818BF0021284043F40073D9
:10077000034301200B4313601568FFF73FFF236815
:10078000402201201D605A605D68FFF737FF236833
:1007900001205D6000259D60DD609A6922F0BE0247
:1007A0001204120C42F080029A619E69FFF726FF44
:1007B000236801209E61DD61DD69FFF71FFF22686C
:1007C0000120184BD56141F2180551590B4043F0F7
:1007D000087343F0040353515659FFF70FFF236882
:1007E0000120114A5E5103F580531A601D68FFF71E
:1007F00005FF226802F580531D60A369012B07D114
:1008000041F21C01535843F4803343F040035350EA
:100810006369064A998811601A68054B1A6070BDB1
:100820000F8120FF233FDEF88020C102408002407C
:1008300044800240F0B590F84540012C4FF002048E
:1008400033D0012580F844404FF4801701F1200493
:1008500080F8455040F2F45E002503F1FF3CC16290
:100860009D420BD1026841F21003D150012380F860
:100870004430002380F845301846F0BD0EFB0526B5
:1008800044F8207C44F8186CC6692EB954F8206CE2
:1008900046F4400644F8206C65452CBF0E462646BB
:1008A0000135203444F8346CDAE72046F0BD2DE9F8
:1008B000F04190F84540012C4FF0020430D0012562
:1008C00080F844404FF0004601F1200480F8455084
:1008D00044F2F457002540F2F45E03F1FF3C8162DC
:1008E0009D420CD1026841F20C03D150012380F8E3
:1008F0004430002380F845301846BDE8F0810EFBF7
:10090000052844F8206C44F8188C65452CBF8846AF
:10091000A04644F81C7C013544F8148C2034DFE7F1
:100920002046BDE8F081000090F84530012B4FF0E3
:100930000203F0B566D0012280F8443080F84520EB
:1009400029B980F8442080F845101046F0BDC36AEC
:100950001C68002C06DA122380F84430002380F84B
:100960004530F2E740F2F454A1422CD9B1FBF4F245
:1009700004FB12142CB30132234C01F2F45140F267
:10098000F456571E04FB02110024C1F30C011D682C
:1009900025F040551D601CB91D6845F080551D604F
:1009A000A7425E6004D11D68596045F000551D6086
:1009B0001D68013445F0004594421D60DB68E6D1B6
:1009C0000DE0012AD8D11A68C1F30C0142F040525F
:1009D00059601A601A6842F000421A60DB68C3620C
:1009E00041F2140203689958490705D5042199502A
:1009F000002141F204029950012380F84430002381
:100A000080F845301846F0BD0CFAFFFF90F84530ED
:100A1000012B4FF0020330B53BD00122052480F8B2
:100A20004430114680F84520836A1A68002A01DBA9
:100A3000013C06D10123002280F8443080F8452093
:100A400027E01A68DD6802F44072B2F5007F03D136
:100A5000036381638562E7E71A6812F4407F826B63
:100A600002D101328263F5E701324363012A8263D6
:100A700008BF03631B68C3F30D43043BC363036BED
:100A80009B6885620364012380F84430002380F86A
:100A90004530184630BD7047704770B5026841F266
:100AA00014060446955915F0400521D009F058FE6A
:100AB000236840229A51012384F84430002384F8AB
:100AC0004530236841F214054FF480325A515B5986
:100AD0001B040CD52046FFF7DFFF23684FF40042CC
:100AE0005A51012384F84430002384F8453070BD06
:100AF0009359DA07E5D5FFF7CEFF0123226893511A
:100B000084F8443084F84550DBE7F8B590F8443079
:100B100005461646822B30D002688223890180F870
:100B20004430136901F4F86403F01C012143048A82
:100B3000E402A4B20C4344F001041461FFF758FD31
:100B4000074614F0010007D12B685B699BB2336044
:100B5000012385F84430F8BDFFF74AFDC01BB0F50E
:100B6000803F07D30123032085F84430002385F814
:100B70004530F8BD2B681C69E3E70220F8BD90F80A
:100B80004430422B70B505462ED042238C0192B2E0
:100B900080F8443004F4F864036844F003041869EE
:100BA00000F01C0020432C8A5A61E402A4B20443E2
:100BB0001C61FFF71DFD064614F0010003D101235F
:100BC00085F8443070BDFFF713FD801BB0F5803F02
:100BD00007D30123032085F84430002385F84530EE
:100BE00070BD2B681C69E7E7022070BD0023F7B5D4
:100BF00004460093002800F0DC8090F8443003F0B5
:100C0000FF021BB980F8452009F044FD6A4B5A6C7D
:100C100042F480425A645B6C03F480430193019B6D
:100C2000664B5A6822F400025A605A68216A0A43E5
:100C30005A60236803F580531A6842F001021A6073
:100C4000FFF7D6FC0546236803F580521268D007EB
:100C50001DD41D6900F0DCFC594B5A4A25F01C05D7
:100C60000344934222D845F0080523684FF400421C
:100C7000002120461D61FFF782FF054668B301256C
:100C800001212046FFF75AFD84F844500BE0FFF79E
:100C9000AFFC401BB0F5FA7FD5D90325002384F8BB
:100CA000445084F84530284603B0F0BD464B474ACF
:100CB0000344934202D845F00C05D6E7444B454A1D
:100CC00003449342D1D9444B444A0344934294BFD2
:100CD00045F0040545F01005C7E7FF20FFF78EFC3F
:100CE0006368002B53D0FFF783FC41F28837064638
:100CF0006A4601212046FFF708FFFFF779FC801BB9
:100D0000B8420BD901212046FFF718FD0123032526
:100D100084F84430002384F84530C4E7009B590729
:100D2000E6D54FF4805200212046FFF728FF002827
:100D3000A5D1FFF75DFC41F2883706466A460121DE
:100D40002046FFF7E2FEFFF753FC801BB842D9D8DC
:100D5000009B9A06F2D56A4610212046FFF7D5FE81
:100D600000288CD1009B13F0040218BF4FF40062DE
:100D70009B074CBF00234FF48043E260A360002137
:100D80002046FFF7DBFC012384F844308BE7A3689F
:100D90002946E26820465B0843EAD20292B2FFF796
:100DA000EEFE00287FF46BAF40F6FF70FFF726FCE5
:100DB000E5E7012577E700BF003802400038014031
:100DC00000D3CEFEBFE1E40040F1E9FD3F787D01B4
:100DD00000796CFCFF596202001F0AFA7FF0FA02E8
:100DE00090F84530012B73B505464FF0020033D023
:100DF00000242B6885F84400012601941A683046C7
:100E000085F8456042F008021A601B680193FFF7FD
:100E1000F5FB019A30462B681A6000941A6842F07C
:100E200004021A601B680093FFF7E8FB2B68284652
:100E3000009A1A60FFF76CFC2A6841F218032046FA
:100E4000D15841F40051D150D15841F00201D15054
:100E500085F8446085F8454002B070BD2DE9F04F3B
:100E60000B6885B0DFF8C081019300236C4ADFF87E
:100E7000BC914FF0010E019C0EFA03FE0EEA04062F
:100E8000B64540F0B3804C6824F01007022F16D10D
:100E90004FEAD30A03F0070B4FF00F0C00EB8A0A5E
:100EA0004FEA8B0BDAF820500CFA0BFC25EA0C0CFD
:100EB0000D6905FA0BF545EA0C05CAF820504FEA12
:100EC000430A0325D0F800B004F0030C05FA0AF534
:100ED000013F0CFA0AFCED43012F0BEA050B4CEA2B
:100EE0000B0CC0F800C011D8876807EA050BCF6863
:100EF00007FA0AFC4CEA0B078760476827EA0E0EE0
:100F0000C4F300179F4047EA0E074760C7683D409B
:100F10008F6807FA0AF73D43C560E50066D5D8F843
:100F2000445023F0030703F0030E4FF00F0C45F479
:100F3000804507F180474FEA8E0EC8F8445007F508
:100F40009C37D8F8445005F480450395039D0CFA6E
:100F50000EF5D7F808A02AEA050C324DA8424CD06D
:100F600005F58065A8424AD005F58065A84248D0BD
:100F700005F58065A84246D005F58065A84244D0B5
:100F8000484544D005F50065A84242D005F5806586
:100F9000A84240D005F58065A8423ED005F58065A1
:100FA000A84214BF0A25092505FA0EF514F4803F5E
:100FB00045EA0C05BD606FEA060715680CBF3D40A9
:100FC000354314F4003F156055680CBF3D40354370
:100FD00014F4801F556095680CBF3D403543A40252
:100FE0009560D56854BF3D403543D5600133102B23
:100FF0007FF43FAF05B0BDE8F08F0025D4E70125B1
:10100000D2E70225D0E70325CEE70425CCE7052566
:10101000CAE70625C8E70725C6E70825C4E700BFD5
:10102000003C014000000240003802400014024031
:101030000AB1816170470904FBE743695940416186
:1010400070472DE9F04104468AB000286BD090F833
:10105000BD3303F0FF021BB980F8BC2309F06CFE1E
:10106000254603236E4604F1040855F8100B84F856
:10107000BD3301F0ACF90FCD0FC60FCD0FC695E80B
:10108000030004F1100586E8030098E80E002068CC
:10109000012601F061F90021206801F09EF900218C
:1010A00022462346084683F83C101C33D98401317C
:1010B00083F821600F2983F823009862D86258636F
:1010C000F1D100231F4682F8FC31013382F8FD7113
:1010D0001C320F2B82F8E371C2F8E871C2F8EC7190
:1010E000C2F8F471EFD10FCD6E460FC60FCD0FC60B
:1010F00095E8030086E8030098E80E00206801F0F8
:10110000ADF9012384F8387084F8BD33636A012B8C
:1011100002D1204600F009F8206801F057FA0020BB
:101120000AB0BDE8F0810120FAE701210268034618
:10113000C0F8F813002083F8F003936943F00063CC
:101140009361536D43F0805343F00303536570473D
:101150002DE9F341044618B9012002B0BDE8F08141
:101160000368D80710D4236899075ED42368190749
:1011700000F1A38023685A0700F1C480A269002A05
:1011800040F02E810020E8E7934B9A6802F00C02B1
:10119000042A07D09A6802F00C02082A0AD15B6878
:1011A0005A0207D58C4B1B689B03DCD56368002B68
:1011B000D9D1D1E76368884DB3F5803F11D12B6851
:1011C00043F480332B60FFF713FA834D06462B68F8
:1011D0009F03C8D4FFF70CFA801B6428F7D90320BB
:1011E000BBE79BB92B6823F480332B602B6823F477
:1011F00080232B60FFF7FCF906462B689803B2D5D5
:10120000FFF7F6F9801B6428F7D9E8E7B3F5A02FBC
:101210002B6803D143F480232B60D0E723F4803381
:101220002B602B6823F48023CCE76B4B9A6812F079
:101230000C0F07D09A6802F00C02082A11D15B68E3
:1012400059020ED4644B1A68920702D5E268012A4B
:1012500082D11A68216922F0F80242EAC1021A60BA
:1012600084E7E3685C4DBBB12B6843F001032B605E
:10127000FFF7BEF906462B689F0707D52B68226942
:1012800023F0F80343EAC2032B606FE7FFF7B0F9DE
:10129000801B0228EFD9A2E72B6823F001032B6003
:1012A000FFF7A6F906462B6898077FF55FAFFFF7B3
:1012B0009FF9801B0228F6D991E76369464D83B1F7
:1012C0006B6F43F001036B67FFF792F906466B6F94
:1012D0009B073FF54FAFFFF78BF9801B0228F6D92C
:1012E0007DE76B6F23F001036B67FFF781F906461B
:1012F0006B6F9F077FF53EAFFFF77AF9801B0228DF
:10130000F6D96CE7344B1A6CD00027D41A6C01263E
:1013100042F080521A641B6C03F080530193019BCE
:101320002E4D2B68D9051BD5A3682B4D012B27D13A
:101330002B6F43F001032B6741F28835FFF758F913
:10134000254F80463B6F9B073FD5002E3FF416AFDD
:10135000214A136C23F0805313640FE70026DFE764
:101360002B6843F480732B60FFF742F907462B6824
:10137000DA05D9D4FFF73CF9C01B6428F7D92EE76A
:10138000ABB92B6F41F2883823F001032B672B6F29
:1013900023F004032B67FFF72BF907462B6F980701
:1013A000D3D5FFF725F9C01B4045F7D917E7052B23
:1013B0002B6F03D143F004032B67B9E723F001033C
:1013C0002B672B6F23F00403B5E7FFF711F9A0EBB0
:1013D0000800A842B6D902E7003802400070004079
:1013E000244DAB6803F00C03082B3FF4B5AE2B681B
:1013F000022A23F080732B602ED1FFF7F9F80646FE
:101400002B68990122D4226AE3691343626A43F08C
:10141000005343EA8213E26A43EA0263A26A154C6C
:101420005208013A43EA02436B602B6843F0807331
:101430002B60FFF7DDF8054623689A013FF5A2AE61
:10144000FFF7D6F8401B0228F6D9C8E6FFF7D0F818
:10145000801B0228D4D9C2E6FFF7CAF804462B68DD
:101460009B017FF58FAEFFF7C3F8001B0228F6D96A
:10147000B5E600BF00380240134908B58B6803F099
:101480000C03042B03D0082B03D0104808BD1048D0
:1014900008BD4A684B68496802F03F0213F48003B4
:1014A000C1F388111ABF0A4800230848A1FB0001B4
:1014B000FEF7FEFE044B5B68C3F3014301335B00A0
:1014C000B0FBF3F008BD00BF003802400024F40078
:1014D00000127A002DE9F0410D46044610B90120B2
:1014E000BDE8F081464A136803F00F038B4228D30E
:1014F00021688F0730D4C80743D4414A136803F0EA
:101500000F039D4267D32268510770D4130707D594
:101510003C4A2169936823F4604343EAC103936022
:10152000FFF7AAFF374B384A9B68C3F30313D35C1A
:10153000D840364B1860002009F036FC0020BDE88A
:10154000F081136823F00F030B431360136803F05B
:101550000F039942C3D1CBE711F0040F294B03D0FD
:101560009A6842F4E0529A600E0703D59A6842F4F2
:1015700060429A609A68A06822F0F00202439A6082
:10158000B9E761681F4B01291A681CD112F4003FAA
:10159000A5D09A6841F288381A4E22F003020A4315
:1015A0009A60FFF725F80746B368626803F00C03FA
:1015B000B3EB820FA1D0FFF71BF8C01B4045F3D956
:1015C0000320BDE8F081022902D112F0007FDFE79D
:1015D00012F0020FDCE7136823F00F032B431360B4
:1015E000136803F00F039D427FF479AF8BE7054941
:1015F000E0688B6823F4E05303438B6086E700BF09
:10160000003C0240003802403EDA0008140000208E
:10161000014B1868704700BF14000020044B054AB6
:101620009B68C3F38223D35C034A1068D840704799
:10163000003802404EDA000814000020044B054A2E
:101640009B68C3F34233D35C034A1068D8407047A9
:10165000003802404EDA0008140000200F23036017
:101660000B4B9A6802F0030242609A6802F0F002A3
:1016700082609A6802F4E052C2609B68DB0803F45F
:10168000E0530361034B1B6803F00F030B607047CB
:1016900000380240003C02402DE9F743026804464E
:1016A00012F001060BD0B84B996821F40001996043
:1016B000466B99683143B6FA86F67609996012F45A
:1016C000002512D0B049E56BD1F88C30B5F5801FFC
:1016D00023F4401308BF012643EA050316BFB5FAF9
:1016E00085F500256D09C1F88C30D10210D5A648CA
:1016F000216CD0F88C30B1F5800F23F4400343EA1D
:101700000103C0F88C3000F08581002908BF012555
:1017100012F0807F18BF0126920631D59A4B9B4F5D
:101720001A6C42F080521A641B6C03F080530193D0
:10173000019B3B6843F480733B60FEF759FF804692
:101740003B68DB0540F168818F4F3B6F13F44073BA
:1017500040F06D81236B03F44072B2F5407F8A4AFA
:1017600040F08B81916823F0704021F4F81120F44F
:10177000407001439160C3F30B03116F0B43136778
:101780002368DA060CD5804AD2F88C1021F08071DB
:10179000C2F88C10D2F88C10A06B0143C2F88C10E8
:1017A0005F0408D57849606ED1F8902022F4403269
:1017B0000243C1F89020180408D57349A06ED1F8EF
:1017C000902022F440220243C1F89020D90308D58A
:1017D0006D49E06ED1F8902022F440120243C1F826
:1017E00090209A0308D56849206FD1F8902022F400
:1017F00040020243C1F890205F0608D56249606C40
:10180000D1F8902022F003020243C1F8902018067C
:1018100008D55D49A06CD1F8902022F00C0202435B
:10182000C1F89020D90508D55749E06CD1F890202F
:1018300022F030020243C1F890209A0508D552499F
:10184000206DD1F8902022F0C0020243C1F8902010
:101850005F0508D54C49606DD1F8902022F44072A4
:101860000243C1F89020180508D54749A06DD1F86A
:10187000902022F440620243C1F89020D90408D598
:101880004149E06DD1F8902022F440520243C1F862
:1018900090209A0408D53C49206ED1F8902022F47B
:1018A00040420243C1F890205F0208D53649A06F3C
:1018B000D1F8902022F080620243C1F89020980273
:1018C0000CD53148E16FD0F89020B1F1006F22F0D3
:1018D000006208BF01250A43C0F8902013F0080FEA
:1018E00018BF0125590308D52749606FD1F890200A
:1018F00022F040720243C1F890201A0209D5224911
:10190000D4F88000D1F8902022F080520243C1F830
:101910009020012E00F0B580B3F1007F00F0B1807F
:10192000012D75D1184D2B6823F080532B60FEF7E5
:101930005FFE06462B689F0000F1278121680E0399
:1019400001D5E36B1BB1CD0222D5236C03BB0E4A3C
:10195000D2F88830D2F8880003F4403300F0E04039
:101960000343606943EA8013A06943EA0063C2F855
:101970008830D2F88C30A06A23F4F853013843EA57
:101980000023C2F88C3003E00038024000700040B1
:10199000880215D5E36FB3F1006F11D1824AD2F8F6
:1019A0008830D2F8880003F0706300F0E040034311
:1019B000606943EA8013206A43EA0043C2F8883032
:1019C0000A0719D57849D1F88820D1F8883002F073
:1019D000706203F440331343626943EA8213E2699D
:1019E00043EA0273C1F88830D1F88C30E26A23F4FC
:1019F00040331343C1F88C306B4C236843F0805361
:101A00002360FEF7F5FD054623689B0040F1C48086
:101A1000002009E001267BE6FEF7EAFDA0EB0800C6
:101A200064287FF68DAE032003B0BDE8F083226BFF
:101A300002F4407293423FF48DAE3B6F3A6F23F451
:101A4000407342F480323A673A6F22F480323A6748
:101A50003B673B6FD8077FF57DAEFEF7C9FD41F2CE
:101A6000883980463B6F99073FF574AEFEF7C0FD9D
:101A7000A0EB08004845F5D9D5E7916821F4F811A5
:101A800078E6494E336823F080633360FEF7B0FD9B
:101A9000074633681B0172D42268D70712D5636BDF
:101AA00083B9D6F88430D6F8841003F4403301F0BB
:101AB00070610B43616843EA8113A16843EA0173D3
:101AC000C6F88430160303D5E36BB3F5801F05D049
:101AD000D0021ED5236CB3F5800F1AD13249D1F84C
:101AE0008430D1F8840003F4403300F0E040034335
:101AF000606843EA8013E06843EA0063C1F8843019
:101B0000D1F88C00636A20F01F00013B0343C1F849
:101B10008C30D10111D52449D1F88430D1F884001A
:101B200003F0706300F0E0400343606843EA801311
:101B3000206943EA0043C1F8843092010DD523693E
:101B400062681B0443EA8213E26843EA0263A26804
:101B500043EA0273144AC2F88430134E336843F0E8
:101B600080633360FEF744FD074633681B013FF591
:101B7000D7AEFEF73DFDC01B6428F6D953E7FEF74C
:101B800037FDC01B642884D94DE7FEF731FD801B6B
:101B900064287FF6CFAE46E7FEF72AFD401B642897
:101BA0007FF632AF3FE700BF0038024070B5044611
:101BB00000284ED00023836290F85D3003F0FF02CE
:101BC0001BB980F85C2009F05FF802232168E26805
:101BD00084F85D300B68B2F5E06F23F040030B60D2
:101BE0004FF0000332D91846B2F5706F18BFA362E8
:101BF000236B2BB9B2F5E06F8CBF02230123236363
:101C0000A6686368A569334326693343666933432D
:101C1000E6693343266A3343A66A334305F4007604
:101C20002D0C334305F004050B60636A1A43636BA4
:101C30001A432A43024300204A60CB6923F400631D
:101C4000CB610123206684F85D3070BD4FF4805075
:101C5000CCE7012070BD704703680020DA6842F0CD
:101C60000102DA601A6842F001021A607047704798
:101C700070477047704703681A69910710B50446AA
:101C80000FD5DA6892070CD56FF002021A610122B3
:101C90009B690277990700F08580FFF7E9FF002331
:101CA000237723681A69520710D5DA6850070DD5D3
:101CB0006FF0040220461A6102229B69227713F416
:101CC000407F75D0FFF7D4FF0023237723681A697C
:101CD00011070FD5DA6812070CD56FF008022046FD
:101CE0001A610422DB6922779B0767D0FFF7C0FFE8
:101CF0000023237723681A69D00610D5DA68D10645
:101D00000DD56FF0100220461A610822DB69227798
:101D100013F4407F58D0FFF7ABFF002323772368ED
:101D20001A69D20708D5DA68D00705D56FF0010225
:101D300020461A6108F058FF23681A69110608D571
:101D4000DA68120605D56FF0800220461A6100F0AD
:101D5000C6F823681A69D00508D5DA68110605D5D2
:101D60006FF0800220461A6100F0B9F823681A6902
:101D7000520608D5DA68500605D56FF040022046B5
:101D80001A61FFF777FF23681A69910622D5DA688E
:101D900092061FD56FF0200220461A61BDE8104060
:101DA00000F09CB8FFF763FF2046FFF762FF76E77D
:101DB000FFF75DFF2046FFF75CFF85E7FFF757FF62
:101DC0002046FFF756FF93E7FFF751FF2046FFF746
:101DD00050FFA2E710BD0000304A0368904212D0C5
:101DE000B0F1804F0FD0A2F57C4290420BD002F5AB
:101DF0008062904207D002F58062904203D002F5E3
:101E0000784290421DD14A6823F070031343234A5D
:101E1000904204D123F44073CA68134328E0B0F120
:101E2000804FF7D01E4A9042F4D002F58062904273
:101E3000F0D002F580629042ECD002F578429042F8
:101E4000E8D0184A9042E5D002F580629042E1D095
:101E500002F580629042DDD0A2F598329042D9D04E
:101E600002F580629042D5D002F580629042D1D0D6
:101E70004A6923F08003134303608B68C3620B68D5
:101E80008362064B984206D003F58063984202D0E5
:101E90000123436170470B690363F9E700000140C8
:101EA000000400400040014010B50446A0B190F885
:101EB0003D3003F0FF021BB980F83C20FFF7CBFE5A
:101EC00002232068211D84F83D30FFF785FF0123A0
:101ED000002084F83D3010BD012010BD70477047D0
:101EE0002DE9F041069D04460F46164698462168A6
:101EF000CA6937EA02030CBF01220022B24202D0B3
:101F00000020BDE8F0816B1CF2D09DB9236803204E
:101F10001A6822F4D0721A609A6822F001029A605C
:101F2000202384F8693084F86A30002384F868300C
:101F3000BDE8F081FEF75CFBA0EB08008542D6D837
:101F4000E4E7000038B504460568C3692169A26862
:101F500028680A4361690A4393491A430140206A89
:101F60000A43E1682A606A6822F440520A436A60C0
:101F7000A269A968024321F430610A43AA608B4A2E
:101F8000954219D102F594328949D2F8902002F095
:101F90000302B3F5004F8A5C40F0B380082A00F2D8
:101FA000AD80DFE812F026007B00E900AB00F50011
:101FB000AB00AB00AB00FB007E4A954207D102F5B7
:101FC000FA327D49D2F8902002F00C02E1E77B4A18
:101FD00095422BD102F5F832D2F8902002F030026F
:101FE000102A00F0D28016D8DAB9B3F5004F40F0CD
:101FF0009F80FFF713FB61684A0802EB4003B3FBC5
:10200000F1F39BB2002023F00F02C3F342032168D7
:102010001343CB6038BD202A00F0AB80302A00F09B
:10202000BA80B3F5004F69D0012038BD644A9542AB
:102030000ED102F5F632D2F8902002F0C002402A0A
:1020400000F0A380D0D9802A00F09380C02AE6E770
:102050005C4A954210D102F5F432D2F8902002F495
:102060004072B2F5807F00F09080BDD9B2F5007F5C
:102070007FD0B2F5407FD2E7534A954217D102F59F
:102080009232D2F8902002F44062B2F5806F7CD098
:1020900007D8002AC5D1B3F5004F54D1FFF7CEFAC7
:1020A000A9E7B2F5006F64D0B2F5406FB7E7474AD1
:1020B00095420FD102F5E032D2F8902002F440525E
:1020C000B2F5805F61D08FD9B2F5005F51D0B2F523
:1020D000405FA4E73E4A9542A3D102F5DE32D2F832
:1020E000902002F44042B2F5804F4ED07FF67CAF94
:1020F000B2F5004F3DD0B2F5404F90E701200023EC
:1021000081E7082A90D801A353F822F03121000872
:10211000472100084D2100082920000863210008FC
:10212000292000082920000829200008692100082A
:10213000FFF774FA636800EB5300B0FBF3F080B272
:10214000E860002038BDFFF779FAF3E762685308CA
:1021500003F5740303F51053B3FBF2F39BB2EB608A
:10216000EFE7FFF789F9E5E76268530803F50043F5
:10217000F2E7B3F5004FE9D16068430803F1F47367
:1021800003F59043B3FBF0F33BE7B3F5004FE8D121
:10219000FFF772F92FE7B3F5004FE5D16068430808
:1021A00003F58033EEE700BFF369FFEF0010014055
:1021B00024C000080044004028C000080048004037
:1021C000004C0040005000400014014000780040E6
:1021D000007C0040436ADA0710B506D50168846ABE
:1021E0004A6822F4003222434A609C0706D50168FF
:1021F000C46A4A6822F4803222434A60590706D5ED
:102200000168046B4A6822F4802222434A601A075C
:1022100006D50168446B4A6822F4004222434A60B2
:10222000DC0606D50168846B8A6822F4805222435A
:102230008A60990606D50168C46B8A6822F4005248
:1022400022438A605A0610D50168046C4A68B4F5C6
:10225000801F22F4801242EA04024A6005D14A68D3
:10226000446C22F4C00222434A601B0606D5026871
:10227000816C536823F400230B43536010BD37B5C2
:1022800000250446C566FEF7B3F9226803461268C6
:10229000120709D42023002084F8693084F86800EC
:1022A00084F86A3003B030BD6FF07E424FF4001105
:1022B000204600922A46FFF713FE0028EAD00320AA
:1022C000F0E710B5044660B390F8693003F0FF0200
:1022D0001BB980F8682008F009FD226824232046F5
:1022E00084F86930136823F001031360FFF72AFEB6
:1022F000012816D0636A13B12046FFF76BFF2368ED
:1023000020465A6822F490425A609A6822F02A02C3
:102310009A601A6842F00102BDE810401A60FFF7A7
:10232000AEBF012010BD00000A4B013B01D10320CC
:1023300070470269002AF8DA0369064A43F001038C
:102340000361013AF3D0036913F00103F9D1184690
:10235000704700BF410D030084B038B505AD044699
:1023600085E80E000A9B012B27D1836B23F4803371
:102370008363C36823F4840323F04003C360C3680A
:1023800023F44013C360119B012B03D1C36843F4B2
:102390008013C3602046FFF7C7FF089B012B07D1BE
:1023A000A36843F00603A360A36843F02003A3607F
:1023B0000020BDE8384004B07047C36843F04003D4
:1023C000C360FFF7B1FF4FF48033A363E5E7836891
:1023D00023F0010383600020704708B5C36801291A
:1023E00023F0C043C36008D1C36843F00053C36007
:1023F0003220FEF703F9002008BD19B9C36843F085
:102400008043F4E7012008BD8901074A41F020011B
:102410000161013A05D0036913F02003F9D1184690
:1024200070470320704700BF410D03001023064A88
:102430000361013A05D0036913F01003F9D118467E
:1024400070470320704700BF410D0300D0F80038EB
:102450001943C0F8001800207047000084B02DE92F
:10246000F843044609A8884680E80E0000230B9A2A
:102470000C9F0E991D46139E03F14000013304EB9F
:1024800080000F2B4560F7D1A36B43F40013A363C7
:102490005EB9A36B23F40013A363236843F04003E6
:1024A0002360236843F0800323600023012904F59F
:1024B0000065C4F8003ED4F80038C4F8003858D19C
:1024C000002A54D100212046FFF7C0FF10212046EA
:1024D000FFF79AFF2046FFF7A9FF002304F51062DB
:1024E0004FF0904019464FF0006E4FF67F3C2B6145
:1024F0006B61EB61434540D1002104F530624FF040
:10250000904E4FF0006C08464FF67F388B4246D114
:102510002B69012F23F480732B6107D1294B2B6387
:102520002B6B43F4803343F003032B630023A3613D
:102530006FF0804363611FB9A36943F01003A36187
:10254000A269214B1343A3610F9B1BB1A36943F005
:102550000803A361012E05D1A36943F0804343F032
:102560000403A3610020BDE8F84304B070470121D3
:10257000A9E70329A4D00321A5E7D2F80090B9F177
:10258000000F0ADA3BB9C2F800E011610133C2F86A
:1025900008C02032AEE71060F7E71160F5E7D2F827
:1025A0000090B9F1000F0BDA39B9C2F800C0106120
:1025B0000131C2F808802032A8E7C2F800E0F6E74F
:1025C0001060F4E70001800000383C8008B5D0F8C6
:1025D000043843F00203C0F804380320FEF70EF875
:1025E000002008BD08B501F0ABF8002008BDEFF3EE
:1025F00005830BB101F0F2B801F0EAB830B5B0F9DB
:10260000084085B0028A0B46842C90E8220014BF53
:102610000334002403A800940190284600F0C0FF72
:1026200001280CBF0398002005B030BD002808BF6A
:10263000012008B501F0E8F9002008BD012000F0F4
:1026400051BD000013B500240A460194E8B1EFF330
:102650000583A3B101AA214600F0E8FE012802D0BB
:10266000FF2002B010BD019B3BB14FF08052084BE0
:102670001A60BFF34F8FBFF36F8F0020F1E7194649
:1026800000F00AFE0128EBD1F7E78020E9E700BF60
:1026900004ED00E00129084610B50CD10322002109
:1026A00000F03EFC044620B100231A46194600F013
:1026B0005BFC204610BD0024FBE7000013B500249E
:1026C0000A460194E8B1EFF30583A3B101AA2146BC
:1026D00000F0ACFE012802D0FF2002B010BD019B2B
:1026E0003BB14FF08052084B1A60BFF34F8FBFF3DE
:1026F0006F8F0020F1E7194600F0CEFD0128EBD1E5
:10270000F7E78020E9E700BF04ED00E013B50024FF
:102710000194EFF3058393B101A900F05FFD012857
:1027200013D1019B13B9002002B010BD4FF08052AD
:10273000074B1A60BFF34F8FBFF36F8FF3E71A4653
:10274000194600F011FC0128EDD0FF20ECE700BF96
:1027500004ED00E0FFF7DABF002203C800F0E0BBA1
:102760001FB5002401910394A24208BF0122EFF398
:102770000583ABB1234603AA01A900F0C5FC0128DB
:1027800002D0FF2004B010BD039B3BB14FF080523C
:10279000064B1A60BFF34F8FBFF36F8F0020F1E736
:1027A00001A900F0E1FB0128EBD1F7E704ED00E01F
:1027B000F0B5002685B004461746084603910296F8
:1027C00001AD11B98023019316E00096EFF3058364
:1027D000CBB16A4602A900F029FE01280ABF1023E6
:1027E00001960193009B3BB14FF080520C4B1A6055
:1027F000BFF34F8FBFF36F8F95E8070084E80700A2
:10280000204605B0F0BD02A900F046FD012801D127
:102810001023D8E7002F0CBF00234023D3E700BFCD
:1028200004ED00E008B501F03FFA012803D0BDE84F
:10283000084000F00FB908BD00F108034FF0FF3267
:102840004360C3600361002382600360704700231C
:102850000361704743689A684B608A609A68516068
:102860009960036808610133036070470A68531C6C
:1028700030B50AD103695A684A6091608B6059602B
:10288000036808610133036030BD00F108035C6830
:102890002568AA42EFD32346F9E7416882680369B5
:1028A0008A60826851605968884208BF5A60002275
:1028B0000261186801381860704700000C4B1B68F3
:1028C00001330AD04FF0500372B683F31188BFF37F
:1028D0006F8FBFF34F8F62B6FEE74FF0500372B6B3
:1028E00083F31188BFF36F8FBFF34F8F62B6FEE79C
:1028F0000400002006480068006880F3088862B67B
:1029000061B6BFF34F8FBFF36F8F00DF00BF0000D2
:1029100008ED00E0DFF80C00016841F4700101608F
:102920007047000088ED00E04FF0807321F0010156
:1029300040F8202C44380364034BC16383636FF079
:1029400002030362704700BFBD28000800000000BA
:10295000074B19680868B0E8F04F80F30988BFF3A7
:102960006F8F4FF0000080F311887047AFF3008045
:10297000B83C00204FF0500372B683F31188BFF3C8
:102980006F8FBFF34F8F62B60B4A13680133012B71
:1029900013600FD1094B1B6813F0FF0F0AD04FF0E3
:1029A000500372B683F31188BFF36F8FBFF34F8F5D
:1029B00062B6FEE7704700BF0400002004ED00E0AF
:1029C000094A136853B94FF0500372B683F3118864
:1029D000BFF36F8FBFF34F8F62B6FEE7013B13600B
:1029E0000BB983F311887047040000200000000039
:1029F000EFF30980BFF36F8F154B1A681EF0100FAD
:102A000008BF20ED108A20E9F04F10604DF8043D1A
:102A10004FF0500072B680F31188BFF34F8FBFF3B1
:102A20006F8F62B601F050F84FF0000080F311880C
:102A300008BC19680868B0E8F04F1EF0100F08BF16
:102A4000B0EC108A80F30988BFF36F8F704700BF26
:102A5000B83C002008B54FF0500372B683F31188DC
:102A6000BFF36F8FBFF34F8F62B600F0BFFE18B198
:102A70004FF08052024B1A60002383F3118808BD87
:102A800004ED00E0064B4FF47A721B68B3FBF2F3DF
:102A9000044A013B13600722034B1A60704700BFD2
:102AA0001400002014E000E010E000E0234B13B518
:102AB0001A780021D2B20192FF221A701B78204AA4
:102AC000DBB28DF803309DF8033003F05003137030
:102AD00007221C4B1A609DF80300541E000623D4E5
:102AE00001B11A601A68120202F4E0621A60019BD6
:102AF000124ADBB21370144B1A6842F470021A6067
:102B00001A6842F070421A60FFF7BCFF00220F4BB8
:102B10001A60FFF7FFFE0E4A136843F0404313604C
:102B2000FFF7E8FEFFF7CAFE9DF8032001215200DF
:102B3000D2B28DF803202246CDE700BF00E400E0CA
:102B4000980000209C00002020ED00E00400002000
:102B500034EF00E0EFF305830F2B10D9124A9B5C92
:102B6000124A12789A420AD94FF0500372B683F390
:102B70001188BFF36F8FBFF34F8F62B6FEE70C4B28
:102B80000C4A1B68126803F4E06393420AD94FF0C1
:102B9000500372B683F31188BFF36F8FBFF34F8F6B
:102BA00062B6FEE7704700BFF0E300E09800002047
:102BB0000CED00E09C0000200F4B10B51A6882421B
:102BC00018D35C681919884201BF41681846091971
:102BD0005960446801198A4207D1084909688A4244
:102BE0001FBF51681268091941609842026018BFFE
:102BF000186010BD1346E1E7B03C0020A0000020A3
:102C00002DE9F041044600F0DBFD4049404D0B68E2
:102C10000BBB404A5607404E1BBFD01D02F57053F8
:102C20004FF4705320F007001CBF02461B1A00200F
:102C3000134432607060083B23F00703186058604B
:102C4000981A0B601360354B50601860344B186055
:102C50004FF000432B602F68274216D1002C42D042
:102C600004F1080358071CBF23F00703083363B1BE
:102C70002B4A16689046B34207D8274A15686868F9
:102C8000834204D809688D4207D100242BE02C68C8
:102C9000002CF7D02A462546F1E729681468116010
:102CA000C21A102A11D9E81841070AD04FF0500370
:102CB00072B683F31188BFF36F8FBFF34F8F62B685
:102CC000FEE742606B60FFF777FF6B6808341349DB
:102CD000F61A1F4308680023C8F8006086426F6038
:102CE0002B6038BF0E6000F015FE63070AD04FF06E
:102CF000500372B683F31188BFF36F8FBFF34F8F0A
:102D000062B6FEE72046BDE8F08100BFA0000020CB
:102D1000A43C0020A4000020B03C0020AC3C0020DB
:102D2000A83C002010B50446002832D0194A50F8BB
:102D3000043C126813420AD14FF0500372B683F379
:102D40001188BFF36F8FBFF34F8F62B6FEE750F865
:102D5000081C51B14FF0500372B683F31188BFF3D2
:102D60006F8FBFF34F8F62B6FEE723EA020340F88E
:102D7000043C00F025FD084A54F8043CA4F1080086
:102D800011680B441360FFF717FFBDE8104000F017
:102D9000C1BD10BDA43C0020A83C002070B5154664
:102DA000026C0446866B42B905689DB9406800F024
:102DB000D1FF65600136A66370BD6DB9806808F00B
:102DC000C4F9A368226C134462689342A36001D3E0
:102DD0002368A3600020EDE7C06808F0B6F9236C13
:102DE000E2685B4221681A448A42E2603EBF626840
:102DF0009B18E360022DEDD10EB1013EEAE73046AB
:102E0000D8E7034608461A6C10B462B1D9685C680A
:102E10001144A142D9605DF8044B24BF1968D96000
:102E2000D96808F092B95DF8044B704770B5044654
:102E3000FFF7A0FD94F8455004F124066DB2002D73
:102E400014DCFF2304F1100684F84530FFF7B8FDC9
:102E5000FFF790FD94F844506DB2002D12DCFF2373
:102E600084F84430BDE87040FFF7AABD636A002BC8
:102E7000E7D0304600F080FE08B100F00FFF013DC2
:102E80006DB2DCE72369002BE9D0304600F074FE18
:102E900008B100F003FF013D6DB2DEE738B50D4625
:102EA000044650B94FF0500372B683F31188BFF354
:102EB0006F8FBFF34F8F62B6FEE7FFF75BFD206CAD
:102EC000E36B22684343A260D1181B1A134461606C
:102ED0000021E360FF23A16384F8443084F8453087
:102EE00095B9236963B104F1100000F045FE38B1D3
:102EF0004FF08052094B1A60BFF34F8FBFF36F8FB3
:102F0000FFF75EFD012038BD04F11000FFF794FCCF
:102F100004F12400FFF790FCF2E700BF04ED00E0AD
:102F200070B50D46064650B94FF0500372B683F3A4
:102F30001188BFF36F8FBFF34F8F62B6FEE7484330
:102F40004830FFF75DFE044638B145B92060E663BE
:102F5000012125642046FFF7A1FF204670BD00F146
:102F600048030360F3E700002DE9FF47894601921B
:102F70001F46044650B94FF0500372B683F31188D0
:102F8000BFF36F8FBFF34F8F62B6FEE7002940F0AB
:102F90008C80036C002B00F088804FF0500372B6D9
:102FA00083F31188BFF36F8FBFF34F8F62B6FEE7D5
:102FB000019E002E00F084804FF0500372B683F320
:102FC0001188BFF36F8FBFF34F8F62B6FEE7019D8D
:102FD0001DB9FFF7F5FC002058E016B902A800F073
:102FE0000FFEFFF7EDFC00F0EBFBFFF7C3FC94F8DE
:102FF0004430FF2B01D184F8448094F84530FF2BF6
:1030000001D184F84580FFF7DBFC01A902A800F09C
:1030100007FE002843D1FFF7ADFCA66BE56BFFF779
:10302000CFFCAE4235D1019904F1100000F088FDCB
:103030002046FFF7FBFE00F06DFC38B94FF08053DF
:10304000CAF80030BFF34F8FBFF36F8F0126FFF731
:1030500091FCA26BE36B9A4201D3022FB7D13A469F
:1030600049462046FFF79AFE636A1BB104F124002B
:1030700000F082FD38B14FF08052194B1A60BFF357
:103080004F8FBFF36F8FFFF79BFC012004B0BDE8AB
:10309000F0872046FFF7CAFE00F03CFCD6E720464A
:1030A000FFF7C4FE00F036FC95E7022F02D1E36B78
:1030B000012B0AD100F0F8FD00283FF479AF00267B
:1030C0004FF00008DFF818A0C1E74FF0500372B6C8
:1030D00083F31188BFF36F8FBFF34F8F62B6FEE7A4
:1030E00004ED00E010B5024600210120FFF718FFB3
:1030F000044638B1002343601A4603601946C36092
:10310000FFF732FF204610BD2DE9F843884691466F
:103110001F46044650B94FF0500372B683F311882E
:10312000BFF36F8FBFF34F8F62B6FEE719BB036C1F
:103130000BB34FF0500372B683F31188BFF36F8F58
:10314000BFF34F8F62B6FEE704F1240000F014FDD8
:10315000002836D0B9F1000F33D00120C9F80000A3
:1031600086F31188BDE8F88301356DB284F84550C7
:1031700027E00020F4E7022F02D1E36B012B22D1DC
:10318000FFF7E8FCEFF311864FF0500372B683F3BC
:103190001188BFF36F8FBFF34F8F62B6A26BE36BE3
:1031A0009A4201D3022FE4D194F845503A46414661
:1031B00020466DB2FFF7F2FD6B1CD5D1636A002B80
:1031C000C2D10120CCE74FF0500372B683F31188CF
:1031D000BFF36F8FBFF34F8F62B6FEE770B50D463A
:1031E000044650B94FF0500372B683F31188BFF311
:1031F0006F8FBFF34F8F62B6FEE7036C53B14FF092
:10320000500372B683F31188BFF36F8FBFF34F8FF4
:1032100062B6FEE7036813B94368002B30D1FFF7AD
:1032200099FCEFF311864FF0500372B683F31188C7
:10323000BFF36F8FBFF34F8F62B6A26BE36B9A42FF
:1032400001D3002014E094F8453001325BB2A26350
:103250005A1C10D1636A0BB9012009E004F1240063
:1032600000F08AFC0028F7D0002DF5D0012028605E
:1032700086F3118870BD01335BB284F84530EBE70B
:103280004FF0500372B683F31188BFF36F8FBFF313
:103290004F8F62B6FEE700002DE9FF478846019296
:1032A0009946044650B94FF0500372B683F3118823
:1032B000BFF36F8FBFF34F8F62B6FEE7002940F078
:1032C000A980036C002B00F0A5804FF0500372B66C
:1032D00083F31188BFF36F8FBFF34F8F62B6FEE7A2
:1032E000019E002E00F09C804FF0500372B683F3D5
:1032F0001188BFF36F8FBFF34F8F62B6FEE7636A2B
:10330000E660002B6DD004F124005FE0019D1DB943
:10331000FFF756FB284667E016B902A800F070FCDC
:10332000FFF74EFB00F04CFAFFF724FB94F8443013
:10333000FF2B01D184F8447094F84530FF2B01D164
:1033400084F84570FFF73CFB01A902A800F068FC77
:10335000002852D1FFF70EFBA56BFFF731FB002DC4
:1033600045D1236833B9FFF705FB606800F0ACFC7A
:10337000FFF726FB019904F1240000F0E1FB204651
:10338000FFF754FD00F0C6FA38B94FF08053CAF881
:103390000030BFF34F8FBFF36F8F0126FFF7EAFABC
:1033A000A56B002DB2D041462046E668FFF729FD07
:1033B000B9F1000FA3D1013D2368A56313B900F053
:1033C0001DFD6060236963B104F1100000F0D4FBBF
:1033D00038B14FF08052144B1A60BFF34F8FBFF3D8
:1033E0006F8FFFF7EDFA012004B0BDE8F0872046AB
:1033F000FFF71CFD00F08EFACFE72046FFF716FD21
:1034000000F088FAFFF7B6FAA56BFFF7D9FA002D9E
:10341000C3D17FE700F048FC00283FF461AF0026ED
:103420000027DFF804A0B9E704ED00E02DE9F84338
:1034300089469046054650B94FF0500372B683F363
:103440001188BFF36F8FBFF34F8F62B6FEE781BB6A
:10345000036C73B34FF0500372B683F31188BFF35C
:103460006F8FBFF34F8F62B6FEE795F84460494611
:103470002846013C76B2FFF7C4FCAC63731C13D141
:103480002B690BB901200BE005F1100000F074FB73
:103490000028F7D0B8F1000FF4D00120C8F80000E0
:1034A00087F31188BDE8F883013676B285F8446069
:1034B000E8E7FFF74FFBEFF311874FF0500372B6C9
:1034C00083F31188BFF36F8FBFF34F8F62B6AC6B7E
:1034D000002CCAD12046E3E7064A13681968064B58
:1034E00019B94FF0FF321A6070471268D268D2687B
:1034F0005268F8E7BC3C0020943D0020F8B51B4B17
:1035000004461B4E0F461D6830680430FFF7C5F9AE
:10351000334640B931680120164EC96A3268884086
:1035200022EA00023260621C07D137B119681248E2
:103530000431BDE8F840FFF78DB92C441A68A54264
:10354000546007D90D4A10681968BDE8F840043185
:10355000FFF78CB90A4A106819680431FFF786F939
:10356000084B1A68944200D21C60F8BDDC3D002074
:10357000B83C0020643D0020B43D0020C03C002049
:10358000BC3C0020943D00204FF0500372B683F302
:103590001188BFF36F8FBFF34F8F62B6FEE7000055
:1035A0002DE9F84F4FEA820A80460F469946504669
:1035B0000B9EFFF725FB0546002800F0968054205F
:1035C000FFF71EFB0446002800F08C80AAF1040AD5
:1035D00005637B1E00F1340255440F3725F0070ABE
:1035E000597802F8011B13F8011F09B1BB42F7D14A
:1035F0000A9D4FF0000B271D062D84F843B0384676
:10360000C4F848B028BF0625E5626564C5F1070522
:10361000FFF71DF904F11800FFF719F9C4F84CB0D1
:1036200024614A46A56141466462504684F850B020
:10363000FFF77AF9206006B13460FFF79BF9324B4F
:10364000324E1A68DFF8F08001321A603568002DBA
:103650004ED134601B68012B1DD108EB05001435D9
:10366000FFF7EAF88C2DF8D1DFF8D090284D4846C6
:10367000FFF7E2F82846FFF7DFF82648FFF7DCF807
:103680002548FFF7D9F82548FFF7D6F8244BC3F8AB
:103690000090244B1D60244A0125244913680868C2
:1036A00001331360E26A05FA02F3034314200B604E
:1036B000394600FB0280FFF7CDF8FFF781F91C4B7C
:1036C0001B6863B13368DA6AE36A9A4207D24FF043
:1036D0008052184B1A60BFF34F8FBFF36F8F28468D
:1036E000BDE8F88F2846FFF71DFB4FF0FF35F6E7E2
:1036F0000F4B1B68002BCED13368DA6AE36A9A421B
:10370000C9D83460C7E700BF503D0020B83C002056
:103710007C3D00209C3D0020C83D0020B43D0020A1
:10372000BC3C0020C03C0020603D0020643D0020E7
:10373000B03D002004ED00E0C43C0020683D0020C6
:1037400013B5194B00248022184901932346009495
:103750001748FFF725FF012816D14FF0500372B626
:1037600083F31188BFF36F8FBFF34F8F62B64FF0B3
:10377000FF32104B1A60104B1860104B1C6002B0E7
:10378000BDE81040FFF792B901300AD14FF0500365
:1037900072B683F31188BFF36F8FBFF34F8F62B69A
:1037A000FEE702B010BD00BF903D002035C000080C
:1037B000553A0008943D0020B03D0020DC3D00203B
:1037C000024A136801331360704700BF5C3D00205C
:1037D000014B1868704700BFDC3D002008B5FFF7BB
:1037E000B9F9014B186808BDDC3D00202DE9F84F00
:1037F0003D4B1B68002B55D13C4B1C6801341C60B1
:10380000CCB93B4B1A68126852B14FF0500372B6F4
:1038100083F31188BFF36F8FBFF34F8F62B6FEE75C
:10382000344A1968106818601160334A136801330C
:103830001360FFF751FE314D4FF0000B304F2B68F6
:103840009C423ED3DFF8A880DFF8C490D8F800206F
:10385000126872BB4FF0FF322A6032E006F1040AB0
:103860005046FFF71AF8B16A19B106F11800FFF7D0
:1038700014F8F06A0122D9F800304FF0140E02FA61
:1038800000F119431F4BC9F8001051460EFB0030E0
:10389000FEF7E0FF3868F16AC26A914228BF4FF034
:1038A000010BD3E7184A4FF0000B13680133136084
:1038B00011E0D8F80020D268D66871688C42CDD269
:1038C00029603A680F4BD16A14224A439A58022A57
:1038D00028BF4FF0010B0D4A1268002A18BF4FF0A5
:1038E000010B5846BDE8F88F5C3D0020DC3D002010
:1038F000BC3C0020C03C0020983D0020943D0020AE
:10390000B83C0020C43C0020583D0020E03D002091
:10391000643D00202DE9F843324C236853B94FF041
:10392000500372B683F31188BFF36F8FBFF34F8FCD
:1039300062B6FEE7FFF71EF82368013B23602468A8
:103940002CB10024FFF73CF82046BDE8F883264B55
:103950001B68002BF5D0DFF8A890244FDFF8A48077
:10396000D9F80030E3B90CB1FFF7B6FD204D2C6853
:1039700044B1204E0127FFF739FF00B13760013C09
:10398000F9D12C601B4B1B68002BDAD04FF0805212
:10399000194B1A60BFF34F8FBFF36F8F0124D1E72C
:1039A000D9F80C300125DC68261D04F11800FEF75B
:1039B00074FF3046FEF771FFE26A3968142005FA99
:1039C00002F300FB02800B4331463B60FEF742FFEF
:1039D0000A4BE26A1B68DB6A9A42C1D3054B1D6041
:1039E000BEE700BF5C3D0020503D0020643D00204C
:1039F000583D0020E03D002004ED00E0B83C0020F0
:103A00009C3D0020C43C002008B540B94FF08052D6
:103A10000E4B1A60BFF34F8FBFF36F8F08BD0C4B77
:103A2000196851B14FF0500372B683F31188BFF398
:103A30006F8FBFF34F8F62B6FEE7FFF7C1FEFFF750
:103A40005DFDFFF767FF0028E0D008BD04ED00E052
:103A50005C3D0020174E08B5174C236863B9174B1F
:103A60001B68012BF8D94FF08052154B1A60BFF339
:103A70004F8FBFF36F8FEFE7FFF7A2FE3568FFF7B9
:103A800049FF002DE9D0FEF775FFF368DD68281DBA
:103A9000FEF703FF0B4A1368013B13602368013BE9
:103AA0002360FEF78DFF286BFFF73CF92846FFF7F0
:103AB00039F9D2E7C83D0020543D0020C43C002025
:103AC00004ED00E0503D0020184B1A68184B10B56B
:103AD00012B101221A6010BD1A60164B1B68B3FAAE
:103AE00083F3DBB214221449C3F11F035A438C58E9
:103AF000881854B94FF0500372B683F31188BFF39E
:103B00006F8FBFF34F8F62B6FEE744680832646878
:103B10000A449442446004BF62684260142202FB7B
:103B200003135B68DA68054BD4E700BF5C3D0020F7
:103B3000E03D0020643D0020C43C0020B83C002053
:103B400010B50C4650B94FF0500372B683F311888C
:103B5000BFF36F8FBFF34F8F62B6FEE7054B196857
:103B60001831FEF783FE20460121BDE81040FFF723
:103B7000C5BC00BFB83C002038B5C368DC6854B988
:103B80004FF0500372B683F31188BFF36F8FBFF30A
:103B90004F8F62B6FEE704F118052846FEF77DFE5A
:103BA000114B1B68DBB9251D2846FEF776FE0F4931
:103BB000E26A012308689340034314200B602946FE
:103BC0000B4B00FB0230FEF745FE0A4BE26A1B6816
:103BD000DB6A9A4206D90120074B186038BD294696
:103BE0000648F0E7002038BD5C3D0020643D002021
:103BF000C43C0020B83C0020E03D00209C3D00205B
:103C000008B508B9FFF7C0FC034B1B680360034B02
:103C10001B68436008BD00BF983D0020DC3D0020CC
:103C200038B50D46044650B94FF0500372B683F3D1
:103C30001188BFF36F8FBFF34F8F62B6FEE751B9A4
:103C40004FF0500372B683F31188BFF36F8FBFF349
:103C50004F8F62B6FEE7FEF78DFE0E4B19682B689C
:103C60005A1C10D00C4A206812689042626801D039
:103C700091420DD2881A83420AD95B1A2046134416
:103C80002B60FFF7BDFF0024FEF79AFE204638BDEB
:103C90000124F9E7DC3D0020983D00200122014B82
:103CA0001A607047E03D0020054B1B6833B1054B9F
:103CB0001B68002B0CBF02200020704701207047BA
:103CC000B03D00205C3D00202DE9F0410446002875
:103CD00038D01D4DC36A2A68D26A934232D28269B3
:103CE000002A04DB2A68D26AC2F107028261174EF9
:103CF0001427626907FB03639A4220D104F1040888
:103D00004046FEF7CAFD124A48B9E06A4743F359F4
:103D10002BB901211368814023EA010313602B684A
:103D20001168D86A01238340E0620B434146136067
:103D3000142303FB0060BDE8F041FEF78BBD2B6848
:103D4000DB6AE362BDE8F081B83C0020C43C00209F
:103D5000643D0020F8B5044608B90020F8BD244BA6
:103D60001B6898420AD04FF0500372B683F3118853
:103D7000BFF36F8FBFF34F8F62B6FEE7836C53B90B
:103D80004FF0500372B683F31188BFF36F8FBFF308
:103D90004F8F62B6FEE7C16A013B426C8364914279
:103DA000DBD0002BD9D1051D124E2846FEF775FD3C
:103DB000114A50B9E76A1421794373582BB901208D
:103DC0001368B84023EA00031360636CC3F1070172
:103DD000E362A1610124116804FA03F00843294653
:103DE0001060142000FB0360FEF734FD2046F8BD90
:103DF000B83C0020C43C0020643D0020044B1A68FD
:103E00001AB119688A6C01328A641868704700BF59
:103E1000B83C00201D4B1B6807B513B11C4A106845
:103E200098471C4D1C4E1D4C1A4806F038FB28467E
:103E300006F03AFB01A9304606F01AF8284606F0CB
:103E40002EFB019B33B9234669221549154807F01B
:103E50008FF9ECE71A78032A0BD0042A0FD0022A34
:103E600011D1181D07C890470199092002F0FAFDE9
:103E7000DDE798685A68904701990820F6E75A6884
:103E800098689047D3E723469B22DEE7E83D002071
:103E9000EC3D00209C3F0020E43D002098C000083D
:103EA000C8C00008E6C00008F8B5074610480E462E
:103EB000154606F0D3FA28B90E4BB5220E490F4825
:103EC00007F056F9092002F0B1FD044668B102235B
:103ED0004760866001460370C560054806F092FAA7
:103EE00028B12146092002F0BDFD4FF0FF30F8BD9A
:103EF000E43D002098C000088BC00008E6C0000820
:103F000091F82F3013F0180F14BF024A024AFFF73E
:103F1000CBBF00BFC5A200082D5B0008F8B507465F
:103F200012480E46154606F099FA28B9104BEE22B3
:103F30001049114807F01CF9082002F077FD0446EB
:103F400088B10323476086600146037007481DB1AE
:103F500006F04CFA0020F8BD06F054FA28B12146CC
:103F6000082002F07FFD4FF0FF30F8BDE43D002057
:103F700098C000088BC00008E6C0000837B50546A9
:103F80000C4600F040F8134B062113481D60134BFC
:103F90001C6006F01BFA30B1114B40F2D5121149EA
:103FA000114807F0E5F8114806F06AFA30B10C4BF9
:103FB00040F2D9120E490C4807F0DAF80323002228
:103FC0000C4900934FF480630B4806F070FA03B07D
:103FD00030BD00BFE83D0020E43D0020EC3D002066
:103FE00098C000083AC00008E6C000089C3F0020C6
:103FF0005DC00008153E00087EC0000840BA80B2CF
:10400000704700BA704708B506F02EFA02F098FA29
:1040100002F0FEFC02F049FD05F07CFF03F0C6F95A
:10402000BDE8084005F0ECBE437A8B421FBF002379
:1040300041728372C382704738B5838A04460D4645
:104040000233442B06D90A4B40F2825209490A48EE
:1040500007F08EF8A38A280A2269D11881F8F000A7
:10406000991C0133A18212FA83F383F8F05038BD12
:104070007EC30008B3C30008E6C0000870B5838A99
:104080001546023204460E461344442B06D90A4B09
:104090004FF4AE6209490A4807F06AF8A38A226918
:1040A000D11881F8F060991C0133A18212FA83F3D0
:1040B00083F8F05070BD00BF7EC30008BBC200088B
:1040C000E6C0000838B5838A04460D46432B06D95E
:1040D000074B40F27B520749074807F049F8A28A8C
:1040E0002369511C1344A18283F8F05038BD00BFEE
:1040F0007EC3000803C30008E6C0000838B5838A01
:1041000005460C460433442B06D9104B40F28A5224
:104110000F49104807F02CF8AB8A200E2A69D118F5
:1041200081F8F000591C200C12FA81F181F8F0009E
:10413000991C200A12FA81F181F8F000191D03334D
:10414000A98212FA83F383F8F04038BD7EC30008D9
:104150003EC30008E6C000082DE9F0410C461646B3
:10416000804650B9624B40F21D726249624806F0C7
:10417000FFFF6FF00F00BDE8F08151B95C4B40F2DA
:104180001E725E495C4806F0F3FF6FF00500BDE863
:10419000F081CB6833B1564B40F21F7258495648F4
:1041A00006F0E6FF236933B1514B4FF4E462554901
:1041B000514806F0DDFF00224FF49A71104602F0DC
:1041C00041FEE060002800F08F804389B3F59A7FBC
:1041D00006D2474B4FF4E5624B49474806F0C8FF0B
:1041E000032E02D1637A032B07D1A37A474D13B96B
:1041F00006F0D6FF28602B682360E36800255F681F
:10420000012327613B707B7098F82830FD70BB70EC
:104210002068FFF7F6FE2369042E78601D725D7238
:104220009D72DD721D735D739D73DD7308D0F21F87
:10423000012A05D9032E06D1627A043A012A02D84E
:10424000D8F80420DA60002203F11C001A745A74B2
:104250009A74DA741A755A759A75DA751A765A76E6
:104260009A76DA7698F8285091B28D423AD9052993
:1042700038D808EB020191F82910013200F8011B2F
:10428000102AF1D103F12C0203F16C01002002F895
:10429000010B8A42FBD103F1EC00002102F8011B63
:1042A0008242FBD16FF07D006322F03303F8030CF0
:1042B000532003F8042C03F8012C002203F8020C0D
:1042C000A18203F8012B0132442AFAD101222046AF
:1042D0003521FFF7D3FE20463146FFF7F3FE0020DD
:1042E000BDE8F0810021C8E74FF0FF30BDE8F08164
:1042F0007EC300083FC10008E6C000085EC1000898
:104300007CC10008A1C10008C8C10008F83D002018
:1043100038B5046A054608212046FFF785FE0022CD
:1043200004F12801284601F0ADF9A37AFF2B1CBF48
:104330000133A3720123E38238BD000037B505467F
:1043400040B93A4B40F2FE3239493A4806F010FF84
:1043500003B030BD046A24B9344B4FF4806236494F
:10436000F3E700232384636B5A1C0BD03C221E33DB
:10437000B3FBF2F34FF6FF72934228BF1346002BB4
:1043800041D06384A36B581C0DD03C221E33B3FB79
:10439000F2F34FF6FF72934228BF1346002B34D03E
:1043A0002383238BA383E36B591C0CD03C221E3345
:1043B000B3FBF2F34FF6FF72934228BF134633B3B9
:1043C0006383638BE383638B228B9A4202D30BB1AB
:1043D00000232383E37AE3B1E36A0093236B019321
:1043E0002BB9A36A009A134043F0807301932046CF
:1043F0000A21FFF719FE01AB6A4604F1280128469D
:1044000002F076FBA4E70123BBE70123C8E7012301
:10441000D6E794F828301A0601D4FF23DDE7BF2B36
:104420008CBF6FF07F434FF6FF73D6E77EC3000863
:104430000EC10008E6C0000827C1000838B5154DB8
:104440002B78F3B9144C23682BB1144BD92214499F
:10445000144806F08DFE05F011FF2060B0B1027A1D
:10446000114942F020020272442205F0EDFD432280
:104470000D49206805F0BEFE00220C49206805F0B9
:10448000E1FE2B78002001332B7038BD4FF0FF3058
:1044900038BD00BFF43D0020F03D00207EC3000881
:1044A00096C20008E6C0000850C80008AD480008E1
:1044B00010B5044640B9174B40F2827216491748AE
:1044C000BDE8104006F054BE036933B9114B40F209
:1044D00083721349114806F04BFEA38A432B06D979
:1044E0000C4B40F284720F490C4806F041FEA38A3F
:1044F0002269591C1344A182FF2183F8F010002186
:10450000A38A432B00D910BD581C1344A08283F802
:10451000F010F5E77EC30008F4C30008E6C0000809
:1045200016C4000842C4000838B50023174D0446DD
:10453000C3620363EB7813B1154BDB6843632B79DC
:10454000DBB1134B1B69A3636B79CBB1104B5B6978
:10455000E36363681B69A362AB792BB10C4B986969
:10456000FFF74FFD0123E062E372EB7923B1084BC3
:10457000D869FFF746FD206338BD636B5B08E2E74F
:10458000636BC3EBC303DB08E2E700BFB83F002067
:10459000C03F002010B5044640B9114B40F26D7287
:1045A00010491148BDE8104006F0E2BDC36833B9B8
:1045B0000B4B40F26E720D490B4806F0D9FD236992
:1045C00033B9074B40F26F720949074806F0D0FD36
:1045D000E06808B102F0CCFB0023E360236110BD6A
:1045E0007EC300082CC20008E6C000084AC20008CA
:1045F0006FC2000873B50023046A06460621A36251
:104600002046FFF711FD012221463046FFF7A4FDA9
:10461000054678BB022239212046FFF72FFDF18C99
:104620002046FFF709FD032237212046FFF726FD2C
:1046300001212046FFF746FD03212046FFF742FDFA
:104640001C212046FFF73EFD2046FFF731FFA18ADF
:10465000E068F03189B202F0D1FC124B12480193AC
:1046600043230096114AE168006805F041FD2046A9
:10467000FFF790FFA37A2846FF2B1CBF0133A372DC
:10468000A27A052A96BF4FF47A734EF660239340C0
:104690004FF4FA7203F2F31393FBF2F3E38202B0E6
:1046A00070BD00BF50C80008F03D002054C800088D
:1046B00073B5046A064601212046FFF7B5FC0322C4
:1046C00021463046FFF748FD0546002847D1022223
:1046D00039212046FFF7D2FCF18C2046FFF7ACFCD5
:1046E000042232212046FFF7C9FCA06AFFF789FCAB
:1046F00001462046FFF702FD042236212046FFF73F
:10470000BDFC606AFFF77DFC01462046FFF7F6FC22
:10471000032237212046FFF7B1FC01212046FFF795
:10472000D1FC03212046FFF7CDFC1C212046FFF7DA
:10473000C9FC2046FFF7BCFEA18AE068F03189B2CF
:1047400002F05CFC114B1248019343230096114A7E
:10475000E168006805F0CCFC2046FFF71BFFA37A58
:104760002846FF2B1CBF0133A372A27A052A96BFED
:104770004FF47A734EF6602393404FF4FA7203F2CB
:10478000F31393FBF2F3E38202B070BD50C800084C
:10479000F03D002054C8000873B5046A06460321A2
:1047A0002046FFF741FC032221463046FFF7D4FCA8
:1047B000054600283AD1022239212046FFF75EFC47
:1047C0004FF410712046FFF737FC042232212046B7
:1047D000FFF754FCA06AFFF714FC01462046FFF7E0
:1047E0008DFC032237212046FFF748FC012120469B
:1047F000FFF768FC03212046FFF764FC1C212046DC
:10480000FFF760FC2046FFF753FEA18AE068F03115
:1048100089B202F0F3FB134800964323124AE16881
:10482000006805F0CBFC2046FFF7B4FEA37A2846CB
:10483000FF2B1CBF0133A372A37A092B96BFC3EBD6
:10484000431242F2107303EB82034FF4FA729CBFDF
:10485000DB009BB203F2F31393FBF2F3E38202B0AB
:1048600070BD00BFF03D002054C8000838B50A4DA7
:104870002B782BB9094BF32209490A4806F078FC3A
:104880002C78013CE4B22C7024B9074D286805F05F
:10489000DDFC2C6038BD00BFF43D00207EC3000865
:1048A00008C20008E6C00008F03D0020AD4B2DE92D
:1048B000F04F5D6889B0D5F820900192B9F1000FF2
:1048C0004DD099F80830002B46D0D9F80430546800
:1048D00033B1A54B4FF4D562A449A54806F048FC76
:1048E000019B5B892B2B37D92378022B34D195F888
:1048F000280005F1290204F11C010023DEB2B042B8
:1049000001D9062B21D16068FFF77BFBD9F8003075
:10491000984221D1974B002201995A6049891A6027
:104920002B2919D901994FF0F00B03924968029392
:10493000C9F804100199B1F808A0019E73895B457C
:1049400013D973685C460493E6E012F8017B0133E7
:1049500011F8016BB742D1D00023C9F80430019897
:1049600002F006FA09B0BDE8F08FABEB0302AAEB48
:10497000030A36681FFA82FB1FFA8AFA002EDDD17D
:10498000EAE73368002B00F072815B681B78D6E0A1
:10499000013C00274FF0FF38A4B23B46023413FA23
:1049A00084F4A4B247B30023B8F1070F079306D9E4
:1049B0006D4B40F2366270496D4806F0D9FB029BA0
:1049C00013F80830C3B9BAB2059B07A9304605925F
:1049D00002F076FC059B8342BED1042F40F0888014
:1049E0000798FFF70EFB07900123029A02F80830A0
:1049F000079B624A42F828307389A34200F28C80F8
:104A0000E41AAAEB030AA4B21FFA8AFA54457AD32D
:104A1000029B1B78002B40F0BF80039B002B40F0D3
:104A2000C480029B5B78002B96D0544A1379052BE7
:104A300040F0D78099F80930012B40F0C780286AF0
:104A4000FFF772FD95F82F3028461B0740F1C6800E
:104A5000FFF75EFC80E7042B2FD0434B40F2F65269
:104A6000474905E0032B2CD83F4B40F2FB52454908
:104A70003F4806F07DFB6FE7012B04D03A4B40F234
:104A800017624149F4E7BBF1F00F22D0364B40F2F8
:104A900019623E49ECE7012B23D0334B40F21D62F3
:104AA000EFE7042B19D0304B40F22162D8E7042BFA
:104AB00017D02D4B40F22562D2E71F464FF0060873
:104AC0006CE74FF00708042768E71F464FF003081C
:104AD00064E71F464FF0000860E71F464FF00208EA
:104AE0005CE71F46984659E71F464FF0050855E713
:104AF000012F04D01C4B4FF4C9622549B8E79DF83B
:104B00001C30079370E7366826B9174B40F25462A1
:104B10002049ADE7736804935445BFF479AF049B13
:104B20001A5DFF2A3FF474AFA31C71899BB20593F1
:104B3000631C8B42BFF625AF049B23445B78342A69
:104B40009AD000F28380012A85D0FFF421AF032A96
:104B500088D0332A40F09B80042BB6D0024B40F221
:104B600009627DE7A03F00207EC3000881C40008E1
:104B7000E6C00008B83F0020CFC40008C03F0020B6
:104B800094C400089DC40008AFC40008B8C400085D
:104B9000E0C40008F3C40008444B002202991B68DB
:104BA0000A70012B0DD0022B06D100234FF06C0AA6
:104BB0004FF02C0B0393C0E6032B7FF42EAF0123A1
:104BC00003934FF0EC0A4FF06C0BB6E6033B022B5D
:104BD0003FF6C2AE286AFFF7A7FC2846FFF7AEFBF8
:104BE000BAE6062B15D199F80930DA1E022A02D945
:104BF000012B7FF4B1AE286A0C21FFF715FA2C4B7C
:104C000028461A46194601F073FF2846FFF7F2FCC2
:104C1000A2E6022B7FF4A0AE99F80930062B7FF4B0
:104C20009BAEBDF80C302C6AA9F81630029B9B781D
:104C3000002B3FF491AE9068FFF7E3F96368606280
:104C400028461B69A362FFF733FD85E6362A3FF449
:104C500028AFFFF420AF3A2A3FF429AF3B2A16D100
:104C6000042B3FF441AF134B40F22962F8E6342A9B
:104C70003FF404AF0FD8012A3FF4EFAEFFF488AE43
:104C8000032A3FF4F1AE332A3FF468AF0023059ABC
:104C90001A4494B2B0E6362A3FF405AFFFF4FDAEF5
:104CA0003A2A3FF406AF3B2ADDD0EFE7C03F0020B1
:104CB00050C800087EC3000837B5054648B9244BE4
:104CC00040F27B322349244803B0BDE8304006F06F
:104CD0004FBA046A002C39D0637A082B36D10A689F
:104CE000A36A9A4232D10C212046FFF79DF9042293
:104CF00021462846FFF730FA08BB0422322120461D
:104D0000FFF7BCF9A06AFFF77CF901462046FFF7E0
:104D1000F5F92046FFF7CCFBA18AE068F03189B2B3
:104D200002F06CF90D4B0E480193432300950D4A98
:104D3000E168006805F0DCF92046FFF72BFCA37A58
:104D4000FF2B1CBF0133A3721423E38203B030BDD9
:104D50007EC3000819C10008E6C0000850C800085A
:104D6000F03D002054C8000873B5046A06460521CA
:104D70002046FFF759F9032221463046FFF7ECF9A8
:104D8000054670BB022239212046FFF777F9F18CE6
:104D90002046FFF751F9032237212046FFF76EF92D
:104DA00001212046FFF78EF903212046FFF78AF9FB
:104DB0001C212046FFF786F92046FFF779FBA18AE0
:104DC000E068F03189B202F019F9134800964323E4
:104DD00004F12402E168006805F0F0F92046FFF7CD
:104DE000D9FBA37A2846FF2B1CBF0133A372A37AF9
:104DF000092B96BFC3EB431244F6206303EB8203F7
:104E00004FF4FA729CBF1B019BB203F2F31393FBA6
:104E1000F2F3E38202B070BDF03D002010B540B95E
:104E20000F4B40F242520F490F48BDE8104006F0C8
:104E30009FB9046A94B1636833B1094B40F24F5291
:104E40000A49094806F094F900212046FFF7ECF8DA
:104E5000237A1BB1FFF70AFD0023237210BD00BFA8
:104E60007EC3000863C50008E6C0000881C40008CE
:104E700038B5054648B9274B40F2D622264927487F
:104E800006F076F96FF00F0038BD90F82F30DB0791
:104E900004D4204B40F2D7222149F0E7C38C046AA6
:104EA000B3F5107F02D24FF0FF3038BDD4B94020A7
:104EB00001F0C2FC04460028F5D0286240220021FF
:104EC000204606F04DF9FFF7B9FA0028EBD101238F
:104ED00028462372FFF78EFB0028E6D02846FFF70E
:104EE0009DFFE0E7E36833B10A4B4FF43C720D4994
:104EF0000A4806F03DF9636833B1064B40F2F122EF
:104F00000949064806F034F9237A002BD6D0FFF77A
:104F1000ADFCD3E77EC3000819C10008E6C0000855
:104F20002AC500084BC5000881C4000858B1006AB2
:104F300048B1407A0A2805D0043801288CBF0020E7
:104F40000120704701207047F0B5046A85B006461D
:104F5000002C47D0636A0393FFF7E8FF0021054662
:104F60002046FFF761F800236362A362E3622363D4
:104F7000E363A363636363842384E383A38375B3DD
:104F8000072221463046FFF7E7F8054608BB04AF85
:104F9000042236212046FFF771F857F8040DFFF779
:104FA00030F801462046FFF7A9F82046FFF780FABF
:104FB000A18AE068F03189B202F020F80B4800962F
:104FC00043233A46E168006805F0F8F82046FFF709
:104FD000E1FA074B30461A46194601F089FD28468A
:104FE00005B0F0BD6FF00F05F9E700BFF03D002000
:104FF00050C80008514B2DE9F7431D6840F21926AF
:105000004F4FDFF8408115B903B0BDE8F0832C6A3B
:105010007CB1637A6BB1618C69B1228C013292B23E
:105020009142228407D12846FFF78EFF2846FFF7DA
:10503000E1FA2D68E7E7B4F81E90B9F1000F64D0EB
:1050400009F1FF32B9F1010FE2835ED1013BDBB21E
:10505000092BEED826FA03F3DB07EAD50421204614
:10506000FEF7E2FF032221462846FFF775F860BBF2
:10507000022239212046FFF701F8E98C2046FEF78D
:10508000DBFF032237212046FEF7F8FF4946204682
:10509000FFF718F803212046FFF714F81C212046DB
:1050A000FFF710F82046FFF703FAA18AE068F03115
:1050B00089B201F0A3FF009543234246E1683868B6
:1050C00005F07CF82046FFF765FAA37AFF2B1CBF9A
:1050D0000133A372A37A092B96BFC3EB431242F2AA
:1050E000107303EB82034FF4FA729CBFDB009BB298
:1050F00003F2F31393FBF2F3228CE382638C9B1A8B
:10510000012B96DD5B10E38393E7A28B002A90D0FE
:10511000511E012AA1838CD103F0FB02012A01D088
:105120000A2B86D12846FFF71FFE638B228C9B1A21
:10513000012BC4BF5B10A3837BE700BFDC7600209C
:10514000F03D002054C8000838B51D4B00251C68F0
:1051500004B938BD236A23B1DA8A012A03D9013A96
:10516000DA822468F4E7FCD15A7ADD820C2A01D075
:10517000062A03D12046FFF73DFAF2E7012A09D1BA
:105180009B7A2046052B02D8FFF792FAE9E7FFF752
:10519000DBFEEFE7082A09D19B7A2046012B02D8D3
:1051A000FFF7B6F8DDE7FFF7C9F8DAE7032AD8D149
:1051B0009B7A2046012BDED8FFF7EEFAD1E700BF3D
:1051C000DC76002070B51826074C05464643A059EA
:1051D00018B101F0CDFD0023A351182303FB0544B2
:1051E0000023237570BD00BFFC3D00202DE9F3476F
:1051F0000B9D894692469846074630B92C4B4FF492
:105200008B622C492C4805F0B3FF00221C210220A0
:1052100001F018FE0646002847D043891B2B06D80C
:10522000234B40F264422549234805F0A1FF7468EE
:10523000BDF83400FEF7E2FEE08097F82830062B38
:1052400006D01B4B40F26B421D491B4805F090FFF6
:10525000D8F800304A4631463846A360B8F80430E2
:10526000A3812B68C4F81230AB880025E3820A9B27
:105270001B68C4F80E300C9B1B682570A3610123CA
:10528000E57063700823A370062323710423637100
:1052900040F606030093534605F060F8304601F0EF
:1052A00067FD284602B0BDE8F0874FF0FF30F9E710
:1052B00071C6000819C10008E6C00008A8C60008A9
:1052C000D9C600082DE9F74F3E4B0A2205460020BB
:1052D0009446144681468046834696461E46019172
:1052E000BEF10A0F1F7D11D197B94FFA80FE013030
:1052F00018330A28F4D1019B990704D4BEF10A0F90
:105300001CD1DB0735D44FF0FF3009E0002FEED081
:10531000002D4AD029688A4659688A4545D140B24D
:1053200003B0BDE8F08FC245E1D34FFA80FCD04610
:10533000DDE7CA4524BF44B2D146D8E75FFA8EF70D
:10534000182303FB07631B7D33B11F4B40F2871209
:105350001E491F4805F00CFF25B118232A6803FBDE
:1053600007635A60182378B203FB07660023738231
:10537000D6E70A2C0FD01823E7B25C43335933B178
:10538000114B40F26F121349114805F0F1FE3846F7
:10539000FFF718FFD4E7BCF10A0F02D05FFA8CF7D1
:1053A000F5E70A2AAFD0D7B2F1E7012FB3F812A080
:1053B000BFD11F68002FB6D0DA4598D342B2D3468A
:1053C00095E700BFFC3D002071C6000893C50008AA
:1053D000E6C000087CC5000870B50646074D0024ED
:1053E0002B7D2BB1AB68B34202D12046FFF7EAFE1A
:1053F000013418350A2CF3D170BD00BFFC3D0020EC
:105400002DE9F047804686B00C4649B94A4B4FF427
:1054100022724A494A4805F0ABFE06B0BDE8F08763
:1054200045682B88B3F5807F08D12B79062B05D1F1
:105430006B79042B02D16B88082B03D0404601F016
:1054400097FCEAE7D5F80E304E680593AB6916B1C4
:105450009B1B5E425E41002E94F8283005F1080740
:1054600014BF4FF001094FF00209062B06D0324B52
:1054700040F2AB123349324805F07AFE0598002815
:105480003CD0214600F0A9FC8246B8BB059B03F046
:10549000F003E02B32D0494605A8FFF713FF0028A0
:1054A0002CDB1822284B4FF0020C02FB00F103EB1F
:1054B000010E8EF814C04FF00C0CCEF8084012FB11
:1054C00000C2386803EB020C9850BA88ACF804208C
:1054D00053F80190AEF812A0B9F1000F0ED043F8C6
:1054E00001A04FF4006304F12902494600932046CD
:1054F0003B4604F033FF484601F03AFCEB88B3F535
:10550000807F07D0B3F5007F98D105A92046FFF72B
:10551000D3FB93E7002E91D0022204F129030197D7
:105520002046039205AA19460292221D00923A468D
:10553000FFF75CFE82E700BF71C6000819C10008D2
:10554000E6C00008DBC50008FC3D00201FB5024690
:1055500000F12903029101240549043203940191C9
:1055600019460092034AFFF741FE04B010BD00BF88
:105570000ADA00089ED90008F8B5134C0025022667
:105580000427227C6AB1E38901339BB2B3F5967F8D
:10559000E38103D2012A09D1042B0BD92846FFF756
:1055A00011FE013518340A2DEBD1F8BD032A06D1BE
:1055B0002774F6E721466068FFF7C8FFF1E7042A81
:1055C000EFD12674EDE700BF003E00202DE9F04347
:1055D0001446274D182285B00646884602FB045221
:1055E000127D012A06D8234B40F2ED22224923489E
:1055F00005F0BEFD182106F1290701FB045999F8B1
:105600001430022B0DD1B9F81230B3F58E7F17D9B3
:10561000494630460431FFF799FF10B9032389F852
:10562000143018234FF400624146304603FB045304
:1056300000923A460C3304F091FE05B0BDE8F083C9
:10564000B3F5877FEDD304EB440301213046DB0043
:105650000391394603F10C0204332B442A4402938C
:10566000074B0193331D00933B46FFF7BFFDD4E783
:10567000FC3D002071C60008FFC50008E6C0000818
:105680000ADA00082DE9F3478946804601461646A6
:10569000D9F8000000F0A1FB044600285ED1D9F83B
:1056A000003003F0F002E02A58D0002B56D0012140
:1056B0004846FFF707FE051E53DB404F182303FB48
:1056C00005731A7D1AB90124C3F808801C751823C4
:1056D00003FB05731B7D33B9394B40F2C93239499D
:1056E000394805F045FD0CB9002E3CD149464046ED
:1056F000FFF72CFF002E38D102B0BDE8F087FBD1B8
:105700003446DFF8BC80DFF8C890DFF8BCA09CB955
:10571000304601F0EBFC002E4CD0B046182303FBC2
:1057200005F21C46B85808B101F022FB04FB05F352
:10573000002047F80380DFE7628923899A4208D175
:10574000236833B143464FF47B724946504605F017
:105750000FFD237B012B1ED12468D8E76FF00F00CB
:10576000CAE72846C8E74FF0FF30182303FB05724D
:10577000127D012AC3D9154A3146404615700C22C4
:1057800013FB05234FF400623B44009208F1290209
:1057900004F0E4FDB0E700222189022001F052FB71
:1057A000804638B1314601F001FD0028B6D04046B0
:1057B00001F0DEFA4FF0FF309EE700BFFC3D002015
:1057C00071C600082FC60008E6C00008EC3E0020A5
:1057D00057C60008F0B50E4685B01546044630B9E8
:1057E0003E4B40F21B323E493E4805F0C1FC36B903
:1057F0003A4B4FF447723C493A4805F0B9FC35B989
:10580000364B40F21D323949364805F0B1FC21468D
:10581000286800F0E2FA00285AD12B6803F0F00261
:10582000E02A1DD101238DF809008DF808305E2390
:105830008DF80A306B7803F07F038DF80B30AB786E
:105840008DF80C30EB788DF80D3002AB4FF4006220
:1058500031462046009204F1290204F07FFD1FE04A
:105860006268A1685A400A4208D09BB24FF6A9620A
:10587000934203D0E3686BB304F10C051C4B182072
:105880001C491A7800FB0210017D0129194609D92B
:105890002F6843689F4205D131462046FFF796FEA8
:1058A00005B0F0BD134B0022187D012806D92F68E2
:1058B0005868874202D1D2B20A70EDE7013218333C
:1058C0000A2AF1D1324629462046FFF7DBFEE7E7F8
:1058D000094BBBE76FF00300E2E700BF71C60008A9
:1058E00019C10008E6C00008A7D00008BCC5000820
:1058F000EC3E0020FC3D00209ED90008F0B5044697
:1059000087B00F46164624210022012001F09AFAA2
:105910000546A0B34389232B06D81A4B4FF4B17226
:1059200019491A4805F024FC226800236C6802F12A
:105930001C00237104F108016371A371E371134624
:105940002770667053F8046B834241F8046BF9D1F9
:1059500006AED36846F8043D304600F0BBF858B1B7
:10596000002101233246A170E170029028468DE8A3
:105970000A00FF2300F020FA284601F0F9F907B0E9
:10598000F0BD00BF81C70008B6C70008E6C0000828
:10599000454B2DE9F043D3F8089085B0044688467E
:1059A00099F800501F4605F00F05AD00132D2AD9B8
:1059B0004289032A27D942681278082A23D15869D4
:1059C00000F0F002E02A1ED0196800F006FA064640
:1059D000C8B92389072B16D905F10E01204601F01D
:1059E000C1F900284FD0218932460220294489B2CA
:1059F00001F028FA064630B1428905F108039A42BF
:105A000007D201F0B5F9204605B0BDE8F04301F03A
:105A1000AFB949462A46406805F097FB69423046CF
:105A200001F0A0F938B1214BAF222149214805F0FE
:105A30009FFB3046E5E72146304601F0B7FB0028E2
:105A4000F7D12046344601F093F92946204666688E
:105A500001F088F902460028D5D161687B69CB60E6
:105A60003B690B61FF233070B070F0700B7288726D
:105A7000C8720121009020460191CDF808800E499E
:105A800000F09AF9BFE7C5F57F412046F23109B22F
:105A900001F068F90028D8D0044BC0220749054816
:105AA00005F066FBAFE700BFA03F002081C70008FC
:105AB0001AC70008E6C00008B43F00204FC700081E
:105AC0000A4604300321FFF719BF0A4604300B21B0
:105AD000FFF714BF134B30B51B686BB9124A12683D
